:020000040800F2
:1000000000000120FD180008210500082305000854
:100010002505000827050008290500080000000044
:100020000000000000000000000000002B05000898
:100030002D050008000000002F050008310500080C
:100040004D1900084D1900084D1900084D190008F8
:100050004D1900084D1900084D1900084D190008E8
:100060004D1900084D1900084D1900084D190008D8
:100070004D1900084D1900084D1900084D190008C8
:100080004D1900084D1900084D1900084D190008B8
:100090004D1900084D1900084D1900084D190008A8
:1000A0004D1900084D1900084D1900084D19000898
:1000B0004D1900084D1900084D1900084D19000888
:1000C0004D1900084D1900084D1900084D19000878
:1000D0004D1900084D1900084D1900084D19000868
:1000E0004D1900084D1900084D1900084D19000858
:1000F0004D1900084D1900084D1900084D19000848
:100100004D19000800000000000000004D19000813
:100110004D1900084D1900084D1900084D19000827
:100120004D1900084D1900084D1900084D19000817
:100130004D1900084D1900080000000000000000E3
:100140004D1900084D1900084D1900080000000065
:10015000000000000000000000000000000000009F
:100160004D1900084D1900084D1900084D190008D7
:100170004D1900084D1900084D1900084D190008C7
:100180004D1900084D190008000000000000000093
:040190004D190008FD
:100194000348044B834202D0034B03B11847704712
:1001A4000C0000200C000020000000000548064957
:1001B4000B1AD90F01EBA301491002D0034B03B171
:1001C400184770470C0000200C00002000000000BD
:1001D40010B5064C237843B9FFF7DAFF044B13B18B
:1001E4000448AFF300800123237010BD0C000020ED
:1001F400000000005019000808B5044B1BB1044965
:100204000448AFF30080BDE80840CFE700000000D9
:10021400100000205019000870B50D4E0D4D761BCE
:10022400B61006D00024013455F8043B9847A64282
:10023400F9D1094E094D761B01F088FBB61006D0A2
:100244000024013455F8043B9847A642F9D170BD07
:10025400A0190008A0190008A4190008A019000892
:10026400F0B4860746D0541E002A3CD0CAB20346D6
:1002740002E014F1FF3436D303F8012B9D07F8D1C3
:10028400032C29D9CDB245EA05250F2C45EA0545AD
:1002940033D9A4F11006360903F1200707EB06173A
:1002A40003F1100242E9045542E902551032BA4200
:1002B400F8D1721C14F00C0F03EB021204F00F06B9
:1002C40013D0331F23F003030433134442F8045BB5
:1002D4009342FBD106F003042CB1C9B21C4403F8C9
:1002E400011B9C42FBD1F0BC704734461346002CE2
:1002F400F3D1F8E714460346C2E71A462646E0E778
:1003040010B58AB0002405940694079408940994BF
:10031400214B5A6942F400225A615A6902F40022BC
:100324000192019A5A6942F480025A615A6902F4AC
:1003340080020292029A5A6942F400325A615A695E
:1003440002F400320392039A5A6942F480225A61F9
:100354005B6903F480230493049B224620214FF01D
:10036400904000F087FA4FF4005305934FF40413C0
:100374000693079405A9094800F0A0F920230593E2
:10038400012306930794089405A94FF0904000F0C8
:1003940095F90AB010BD00BF0010024000080048E3
:1003A40072B6FEE708B50B480B4B03604FF4E1331C
:1003B400436000238360C36003610C224261836154
:1003C400C3610362436201F066FA00B908BDFFF736
:1003D400E7FF00BF280000200044004010B5A6B08D
:1003E40000241D941E9421941794189419941A941B
:1003F4001B945822214601A8FFF732FF02231C93C5
:1004040001221F921022209222934FF4004323933F
:100414004FF4E013249325941CA800F031FAB8B9E2
:100424000F23179302211891002319934FF480622C
:100434001A921B9317A800F07BFD58B9022301936D
:100444000023049301A800F079FE28B926B010BD5A
:10045400FFF7A6FFFFF7A4FFFFF7A2FF08B500F020
:1004640099F8FFF7BBFFFFF74BFFFFF79BFF4FF434
:100474007A7000F0B3F8FAE700B583B00C4B9A69D0
:1004840042F001029A619A6902F001020092009A14
:10049400DA6942F08052DA61DB6903F08053019338
:1004A400019B072000F0AEF803B05DF804FB00BF29
:1004B4000010024000B589B0002303930493059310
:1004C400069307930268144B9A4202D009B05DF870
:1004D40004FB03F5E633DA6942F40032DA61DA69DF
:1004E40002F400320192019A5A6942F400325A61CC
:1004F4005B6903F400330293029B0C2303930223EE
:1005040004930023059306930723079303A94FF04D
:10051400904000F0D3F8D9E700440040FEE7FEE73E
:10052400FEE7FEE7FEE770477047704708B500F046
:1005340043F808BD034AD2F8883043F47003C2F884
:100544008830704700ED00E010B504460E4B187873
:100554004FF47A73B3FBF0F30C4A1068B0FBF3F07A
:1005640000F096F868B90F2C01D901200AE00022A6
:1005740021464FF0FF3000F057F8054B1C60002077
:1005840000E0012010BD00BF040000200000002096
:100594000800002008B5074A136843F010031360ED
:1005A400032000F02FF80020FFF7CEFFFFF764FFD1
:1005B400002008BD00200240034A1168034B1B7849
:1005C4000B441360704700BFAC00002004000020FF
:1005D400014B1868704700BFAC00002038B50446D2
:1005E400FFF7F6FF0546B4F1FF3F02D0044B1B783A
:1005F4001C44FFF7EDFF401BA042FAD338BD00BFF7
:1006040004000020074AD36823F4E0631B041B0C96
:10061400000200F4E060034343F0BF6343F400339B
:10062400D360704700ED00E030B4174BDB68C3F3D0
:100634000223C3F10704042C28BF04241D1D062D26
:1006440018D9033B4FF0FF3505FA04F421EA0401FD
:10065400994005FA03F322EA0303194300280BDB4C
:100664000901C9B200F1604000F5614080F800134F
:1006740030BC70470023E5E700F00F000901C9B260
:10068400024B1954F4E700BF00ED00E014ED00E064
:100694000138B0F1807F0AD2064B5860064AF02137
:1006A40082F823100020986007221A607047012006
:1006B400704700BF10E000E000ED00E0F0B482B04D
:1006C40000235BE086685F000325BD4026EA05063B
:1006D400CD68BD4035438560466826EA04064D680A
:1006E400C5F300149C403443446055E0DD080835EC
:1006F40050F8257003F00704A6000F24B44027EA3D
:1007040004070C69B4403C4340F8254058E00624F3
:1007140000E00024B4403C430235524E46F82540E4
:10072400514C2568D44325EA02064F6817F4803FEC
:1007340001D042EA05064C4D2E606D6804EA0506B8
:100744004F6817F4003F01D042EA0506464D6E603B
:10075400AD6804EA05064F6817F4801F01D042EA29
:100764000506414DAE60ED682C404E6816F4001F3E
:1007740001D042EA05043C4AD46001330A6832FAE3
:1007840003F46BD001249C402240F6D04D6805F060
:100794000305013D012D95D94C6804F00304032C95
:1007A40009D0C5685E000324B44025EA04058C68BA
:1007B400B4402C43C4604C6804F00304022C95D06C
:1007C40005685E000324B44025EA04054C6804F07F
:1007D4000304B4402C4304604C6814F4403FCCD070
:1007E400224CA56945F00105A561A46904F0010442
:1007F4000194019C9D08AE1C1A4C54F8267003F019
:100804000304A6000F24B44027EA0407B0F1904F74
:100814003FF47FAF164CA04216D004F58064A0428A
:1008240014D004F58064A04212D004F58064A04280
:1008340010D004F58064A0420ED004F58064A04278
:100844003FF465AF072465E7012463E7022461E709
:1008540003245FE704245DE705245BE702B0F0BCF2
:10086400704700BF00000140000401400010024036
:10087400000400480AB1816170478162704700003A
:10088400002800F0038370B582B00446036813F0B7
:10089400010F3DD0C74B5B6803F00C03042B20D041
:1008A400C44B5B6803F00C03082B13D06368B3F5E7
:1008B400803F6AD0002B40F08D8003F1804303F524
:1008C40004331A6822F480321A601A6822F48022EF
:1008D4001A605FE0B74B5B6803F4C033B3F5803F45
:1008E400E4D14FF4003393FAA3F3B24B19684FF4F5
:1008F400003393FAA3F3B3FA83F303F01F03012243
:1009040002FA03F30B4203D06368002B00F0C082A9
:10091400236813F0020F00F0C080A64B5B6813F04D
:100924000C0F00F09780A34B5B6803F00C03082BBB
:1009340000F08880E368002B00F0ED80012292FA39
:10094400A2F3B3FA83F303F1845303F584139B00F6
:100954001A60FFF73DFE0546022393FAA3F3954B75
:100964001968022393FAA3F3B3FA83F303F01F0382
:10097400012202FA03F30B4240F0BE80FFF728FE87
:10098400401B0228E8D903208BE28A4A136843F407
:10099400803313606368002B36D0FFF719FE0546D9
:1009A4004FF4003393FAA3F3824B19684FF40033E6
:1009B40093FAA3F3B3FA83F303F01F03012202FAB9
:1009C40003F30B42A4D1FFF703FE401B6428E7D9CD
:1009D400032066E2B3F5A02F09D0764B1A6822F4FF
:1009E40080321A601A6822F480221A60D2E703F176
:1009F4008043A3F53C331A6842F480221A601A68D3
:100A040042F480321A60C5E7FFF7E2FD05464FF471
:100A1400003393FAA3F3674B19684FF4003393FA46
:100A2400A3F3B3FA83F303F01F03012202FA03F3DF
:100A34000B423FF46DAFFFF7CBFD401B6428E6D9B2
:100A440003202EE25B4B5B6803F4C033B3F5004F25
:100A54007FF470AF022393FAA3F3564B1968022371
:100A640093FAA3F3B3FA83F303F01F03012202FA08
:100A740003F30B4203D0E368934240F00B824D48EA
:100A8400036823F0F8032169F82292FAA2F2B2FA79
:100A940082F201FA02F213430360236813F0080F91
:100AA40000F08C806369002B5CD0012191FAA1F2E3
:100AB400B2FA82F2404B13449B001960FFF788FDA1
:100AC4000546022393FAA3F293FAA3F293FAA3F24C
:100AD400384A516A93FAA3F3B3FA83F303F01F037A
:100AE400012202FA03F30B4268D1FFF771FD401BA8
:100AF4000228E6D90320D4E12E48036823F0F80342
:100B04002169F82292FAA2F2B2FA82F201FA02F20E
:100B140013430360C1E7012393FAA3F3B3FA83F306
:100B240003F1845303F584139B0000221A60FFF73A
:100B34004FFD0546022393FAA3F31E4B19680223C3
:100B440093FAA3F3B3FA83F303F01F03012202FA27
:100B540003F30B42A1D0FFF73BFD401B0228E9D968
:100B640003209EE1012292FAA2F2B2FA82F2124B1F
:100B740013449B0000221A60FFF72AFD0546022356
:100B840093FAA3F293FAA3F293FAA3F2094A516AED
:100B940093FAA3F3B3FA83F303F01F03012202FAD7
:100BA40003F30B420AD0FFF713FD401B0228E6D9DA
:100BB400032076E10010024020819010236813F096
:100BC400040F00F0A980BB4BDB6913F0805F20D1D8
:100BD400B84BDA6942F08052DA61DB6903F0805382
:100BE4000193019B0125B44B1B6813F4807F12D041
:100BF400A368012B23D073BB03F1804303F50433B3
:100C04001A6A22F001021A621A6A22F004021A62B3
:100C14001AE00025E7E7A84A136843F480731360D9
:100C2400FFF7D6FC0646A44B1B6813F4807FDFD184
:100C3400FFF7CEFC801B6428F5D9032031E19D4ADF
:100C4400136A43F001031362A368002B3CD0FFF73F
:100C5400BFFC06462EE0052B09D0964B1A6A22F0FB
:100C640001021A621A6A22F004021A62ECE7914B3A
:100C74001A6A42F004021A621A6A42F001021A6203
:100C8400E2E7022393FAA3F38A4B596A022393FA05
:100C9400A3F3B3FA83F303F01F03012202FA03F36D
:100CA400194238D1FFF794FC801B41F288339842F3
:100CB40000F2F280022393FAA3F293FAA3F3002B37
:100CC400DFD07C4B196AE1E7FFF782FC064618E0A7
:100CD400022393FAA3F3774B596A022393FAA3F3FB
:100CE400B3FA83F303F01F03012202FA03F3194258
:100CF40011D0FFF76DFC801B41F28833984200F25B
:100D0400CD80022393FAA3F293FAA3F3002BDFD04E
:100D1400684B196AE1E7B5BBA369002B00F0C080FA
:100D2400644A526802F00C02082A00F09980022BEF
:100D34002FD04FF0807393FAA3F3B3FA83F303F144
:100D4400845303F584139B0000221A60FFF740FCD0
:100D540004464FF0007393FAA3F3564B19684FF00F
:100D6400007393FAA3F3B3FA83F303F01F0301228E
:100D740002FA03F3194271D0FFF72AFC001B022880
:100D8400E7D903208DE04B4AD36923F08053D36124
:100D9400C2E74FF0807393FAA3F3B3FA83F303F13A
:100DA400845303F584139B0000221A60FFF710FCA0
:100DB40005464FF0007393FAA3F33E4B19684FF0C6
:100DC400007393FAA3F3B3FA83F303F01F0301222E
:100DD40002FA03F3194206D0FFF7FAFB401B02287C
:100DE400E7D903205DE0334AD36A23F00F03616A35
:100DF4000B43D362536823F47613216AE0690143F9
:100E04000B4353604FF0807393FAA3F3B3FA83F365
:100E140003F1845303F584139B0001221A60FFF746
:100E2400D7FB04464FF0007393FAA3F3214B1968E0
:100E34004FF0007393FAA3F3B3FA83F303F01F03A1
:100E4400012202FA03F3194206D1FFF7C1FB001B8A
:100E54000228E7D9032024E0002022E0002020E03B
:100E6400012B20D0134A5368D06A03F4C031E269DD
:100E740091421AD103F47013226A934217D100F0FD
:100E84000F00636A984219D100200AE001207047DC
:100E9400012006E0012004E0032002E0032000E03A
:100EA400002002B070BD0120FBE70120F9E701201A
:100EB400F7E700BF00100240007000400120F0E797
:100EC400174B5B6803F00C02082A01D015487047E1
:100ED40003F470114FF4701292FAA2F2B2FA82F291
:100EE40021FA02F21049885C0D4AD26A02F00F021C
:100EF4000F2191FAA1F1B1FA81F1CA400B498A5C40
:100F040013F4803F05D0074BB3FBF2F300FB03F06F
:100F14007047044BB3FBF2F300FB03F0704700BFD0
:100F24000010024000127A0080190008901900088D
:100F3400002800F0BE8070B50D460446614B1B6866
:100F440003F007038B420BD25E4A136823F00703B6
:100F54000B431360136803F007038B4240F0AB802C
:100F6400236813F0020F06D0574A536823F0F003A6
:100F7400A1680B435360236813F0010F5AD06368D0
:100F8400012B2DD0022B40D0022292FAA2F24E4A1B
:100F94001068022292FAA2F2B2FA82F202F01F025E
:100FA400012101FA02F2104200F0878046494A68A2
:100FB40022F0030213434B60FFF70AFB0646424B41
:100FC4005B6803F00C036268B3EB820F32D0FFF767
:100FD400FFFA801B41F288339842F0D9032067E07E
:100FE4004FF4003292FAA2F2374A10684FF40032FA
:100FF40092FAA2F2B2FA82F202F01F02012101FA7D
:1010040002F20242D2D1012052E04FF0007292FA71
:10101400A2F22D4A10684FF0007292FAA2F2B2FACC
:1010240082F202F01F02012101FA02F21042BDD144
:1010340001203DE0234B1B6803F00703AB420AD9B0
:10104400204A136823F007032B431360136803F04B
:101054000703AB4233D1236813F0040F06D01A4AB6
:10106400536823F4E063E1680B435360236813F08F
:10107400080F07D0144A536823F46053216943EAE4
:10108400C1035360FFF71CFF0F4B5B6803F0F003D1
:10109400F02292FAA2F2B2FA82F2D3400B4AD35C63
:1010A400D8400B4B18600B4B1868FFF74DFA002023
:1010B40070BD012070470120FAE70120F8E7012004
:1010C400F6E700BF00200240001002406819000843
:1010D4000000002008000020014B1868704700BF82
:1010E4000000002008B5FFF7F7FF074B5B6803F427
:1010F400E0634FF4E06292FAA2F2B2FA82F2D340D1
:10110400024AD35CD84008BD001002407819000898
:1011140008B5FFF7E1FF074B5B6803F460534FF436
:10112400605292FAA2F2B2FA82F2D340024AD35C3B
:10113400D84008BD0010024078190008F0B583B00B
:101144000446036813F4803F48D0A14BDB6913F0D5
:10115400805F40F021819E4BDA6942F08052DA616F
:10116400DB6903F080530193019B0125994B1B68B4
:1011740013F4807F00F01281954B1B6A13F44073C3
:1011840022D0626802F440729A421DD09048016AEB
:1011940021F440764FF4803393FAA3F2B2FA82F248
:1011A4008D4F3A4492004FF0010CC2F800C093FAFC
:1011B400A3F3B3FA83F33B449B0000221A60066254
:1011C40011F0010F40F0FF80814A136A23F4407349
:1011D40061680B431362002D40F02381236813F0F0
:1011E400010F06D07A4A136B23F00303A1680B4363
:1011F4001363236813F0020F06D0754A136B23F4AC
:101204004033E1680B431363236813F0040F06D0E3
:101214006F4A136B23F4402321690B431363236840
:1012240013F0200F06D06A4A136B23F01003E16910
:101234000B431363236813F4003F06D0644A5368D6
:1012440023F48003616D0B435360236813F0400F54
:1012540006D05F4A136B23F02003216A0B43136308
:10126400236813F4802F06D0594A136B23F04003EC
:10127400616A0B431363236813F0080F06D0544AC2
:10128400136B23F4401361690B431363236813F056
:10129400100F06D04E4A136B23F44003A1690B438D
:1012A4001363236813F4007F06D0494A536823F478
:1012B4000003216B0B435360236813F0800F06D0A7
:1012C400434AD36A23F4F873A16A0B43D3622368B5
:1012D40013F4807F06D03E4AD36A23F47853E16A3C
:1012E4000B43D362236813F4805F06D0384A136B30
:1012F40023F48073616B0B431363236813F4005F5F
:1013040006D0334A136B23F40073216C0B4313632D
:10131400236813F4801F06D02D4A136B23F08073C7
:10132400A16B0B431363236813F4001F06D0284AF0
:10133400136B23F00073E16B0B431363236813F403
:10134400800F06D0224A136B23F48063616C0B4335
:101354001363236813F4000F06D01D4A136B23F4A0
:101364000063A16C0B431363236813F0807F06D0E2
:10137400174A136B23F40053E16C0B431363236884
:1013840013F0007F54D0124A136B23F40043216DF1
:101394000B43136300204CE00025E7E60D4A136875
:1013A40043F480731360FFF713F90646094B1B6877
:1013B40013F4807F7FF4E0AEFFF70AF9801B642802
:1013C400F4D9032035E0FFF703F906461FE000BF18
:1013D400001002400070004000819010022393FA34
:1013E400A3F3154B596A022393FAA3F3B3FA83F3D5
:1013F40003F01F03012202FA03F30B427FF4E4AE6D
:10140400FFF7E6F8801B41F2883398420ED8022396
:1014140093FAA3F293FAA3F3002BDFD0064B196AD5
:10142400E1E7D36923F08053D361D7E6032000E0DA
:10143400002003B0F0BD00BF0010024010B5044608
:1014440083680269134342691343C2691343016801
:101454000868864A024013430B602268536823F4E9
:101464004053E1680B435360A269236A1A4321681D
:101474008B6823F4306313438B6023687C4A934264
:101484000DD07C4A93421CD07B4A93423AD07B4A8B
:1014940093424AD07A4A93425AD010231FE0794BA0
:1014A4001B6B03F00303032B09D8DFE803F00204EA
:1014B4000664012313E0042311E008230FE0102342
:1014C4000DE0704B1B6B03F44033B3F5003F54D075
:1014D40013D8002B53D0B3F5803F52D10423E069D5
:1014E400B0F5004F69D0082B00F2B980DFE803F0B3
:1014F40092A890B7ABB7B7B7AE00B3F5403F42D1AF
:101504000223ECE75F4B1B6B03F44023B3F5002F7E
:101514003BD005D8DBB3B3F5802F3AD10423DEE703
:10152400B3F5402F37D10223D9E7564B1B6B03F495
:101534004013B3F5001F30D005D883B3B3F5801F33
:101544002FD10423CBE7B3F5401F2CD10223C6E7E8
:101554004C4B1B6B03F44003B3F5000F25D005D8A7
:101564002BB3B3F5800F24D10423B8E7B3F5400FB0
:1015740021D10223B3E70223B1E70823AFE7002315
:10158400ADE71023ABE71023A9E70823A7E700235F
:10159400A5E71023A3E71023A1E708239FE700236F
:1015A4009DE710239BE7102399E7082397E700237F
:1015B40095E7102393E7102391E7082B49D8DFE838
:1015C40003F0051F2548224848480900FFF78AFD13
:1015D400002840D06268530803EB4000B0FBF2F0EF
:1015E40080B2A0F110024FF6EF739A4235D820F082
:1015F4000F03C0F3420018432368D86000201BE0A7
:10160400FFF786FDE4E7FFF75BFCE1E71E48E1E74F
:101614001D4802E0FFF766FD18B3636800EB530052
:10162400B0FBF3F080B2A0F110024FF6EF739A42D0
:1016340019D82368D860002000236366A36610BD10
:10164400FFF766FDE8E7FFF73BFCE5E74FF40040F2
:10165400E3E70120F0E70020EEE70120ECE70120BA
:10166400EAE70020E8E70120E6E700BFF369FFEFBF
:10167400003801400044004000480040004C004055
:10168400005000400010024000127A00436A13F038
:10169400010F06D00268536823F40033816A0B43B8
:1016A4005360436A13F0020F06D00268536823F4B0
:1016B4008033C16A0B435360436A13F0040F06D0AE
:1016C4000268536823F48023016B0B435360436A1D
:1016D40013F0080F06D00268536823F40043416BEB
:1016E4000B435360436A13F0100F06D002689368EB
:1016F40023F48053816B0B439360436A13F0200FF0
:1017040006D00268936823F40053C16B0B439360C3
:10171400436A13F0400F0AD00268536823F480131D
:10172400016C0B435360036CB3F5801F0BD0436A09
:1017340013F0800F06D00268536823F40023816CF1
:101744000B43536070470268536823F4C003416C31
:101754000B435360EBE72DE9F84305460F46164665
:101764009946DDF820802C68E46937EA04030CBF4D
:1017740001240024B44253D1B8F1FF3FF3D0FEF763
:1017840027FFA0EB090040452DD8B8F1000F2AD05F
:101794002B681A6812F0040FE5D0DA6912F4006FAE
:1017A400E1D04FF400621A622A6852E8003F23F441
:1017B400D07342E800310029F6D12A6802F1080307
:1017C40053E8003F23F00103083242E800310029C6
:1017D400F3D12023AB67EB67C5F88030002385F88D
:1017E400743003201DE02A6852E8003F23F4D073CC
:1017F40042E800310029F6D12A6802F1080353E8CF
:10180400003F23F00103083242E800310029F3D1FC
:101814002023AB67EB67002385F87430032000E0D6
:101824000020BDE8F88330B583B004460023C0F837
:101834008030FEF7CDFE054623681B6813F0080FC1
:101844000DD123681B6813F0040F16D12023A3675E
:10185400E3670020206684F8740003B030BD6FF0A5
:101864007E430093034600224FF400112046FFF705
:1018740072FF0028E5D00320EFE76FF07E4300936A
:101884002B4600224FF480012046FFF764FF002816
:10189400DCD00320E1E768B310B50446836F03B3DB
:1018A4002423A3672268136823F0010313602046EE
:1018B400FFF7C4FD012813D0636ABBB922685368DB
:1018C40023F4904353602268936823F02A039360BF
:1018D4002268136843F0010313602046FFF7A3FF57
:1018E40010BD80F87430FEF7E5FDD9E72046FFF718
:1018F400CDFEE3E701207047DFF834D00D480E49F0
:101904000E4A002302E0D458C4500433C4188C4255
:10191400F9D30B4A0B4C002301E013600432A242BA
:10192400FBD3FEF707FEFEF777FCFEF797FDFEE715
:1019340000000120000000200C000020A81900086D
:101944000C000020B0000020FEE70000F8B500BF46
:10195400F8BC08BC9E467047F8B500BFF8BC08BC8C
:041964009E467047E4
:101968000000000000000000010203040607080947
:101978000000000001020304020304050607080929
:101988000A0B0C0D0E0F10100102030405060708C0
:08199800090A0B0C0D0E0F10E3
:0419A000FD0100083D
:0419A400D501000861
:0C19A80000127A00010000001000000096
:04000005080018FDDA
:00000001FF
